:100000000C942A000C9447000C9447000C94470071
:100010000C9447000C9447000C9447000C94470044
:100020000C9447000C9447000C9447000C94470034
:100030000C9447000C9447000C9447000C94470024
:100040000C9447000C9447000C9447000C94470014
:100050000C94470011241FBECFE5D8E0DEBFCDBF12
:1000600011E0A0E6B0E0E2E1F8E602C005900D92F2
:10007000A03AB107D9F711E0A0EAB1E001C01D92A2
:10008000A83AB107E1F70E948D150C9407340C943F
:100090000000EF92FF920F931F937B018C0120E0F1
:1000A00030E040E05FE40E94490388238CF0C801FF
:1000B000B70120E030E040E05FE40E94C1010E940F
:1000C000A9039B01AC01205030404040504806C07D
:1000D000C801B7010E94A9039B01AC01B901CA0183
:1000E0001F910F91FF90EF900895A0E0B0E0EBE733
:1000F000F0E00C94D033DC012B01FA019C9192309A
:1001000008F439C1EB018881823008F433C194309E
:1001100069F4843009F02FC111969C91119789815F
:10012000981709F428C1A8E8B1E025C1843009F482
:1001300021C18230A9F4923009F01DC19A01AD01AC
:1001400088E0EA010990AE01E90109929E0181501F
:10015000C1F7E201898111969C918923818308C1AD
:10016000923009F407C112962D903C901397EB0141
:100170008A819B811496AD90BD90CD90DC901797AD
:10018000EC80FD800E811F819101281B390BB90184
:1001900037FF04C066277727621B730B6032710537
:1001A0000CF061C0121613066CF537014801062EDB
:1001B00004C096948794779467940A94D2F721E0C8
:1001C00030E040E050E004C0220F331F441F551FB1
:1001D0006A95D2F721503040404050402E213F21B7
:1001E00040235123211531054105510521F021E01E
:1001F00030E040E050E079018A01E628F72808293C
:1002000019293CC0232BD1F1260E371E350146019A
:10021000062E04C096948794779467940A94D2F734
:1002200021E030E040E050E004C0220F331F441FC3
:10023000551F6A95D2F721503040404050402A2146
:100240003B214C215D21211531054105510521F04E
:1002500021E030E040E050E059016A01A628B728CB
:10026000C828D9280BC0821593052CF01C01AA249C
:10027000BB24650103C0EE24FF24870111969C91E5
:10028000D20111968C91981709F445C0992339F041
:10029000A80197012A193B094C095D0906C0A6016E
:1002A00095012E193F09400B510B57FD08C01182D3
:1002B0003382228224833583468357831DC081E0A5
:1002C00081833382228288279927DC01821B930B4A
:1002D000A40BB50B84839583A683B7830DC0220F2F
:1002E000331F441F551F24833583468357838281E0
:1002F000938101979383828324813581468157813D
:10030000DA01C9010197A109B1098F5F9F4FAF4F72
:10031000BF4328F30BC0918333822282EA0CFB1C7B
:100320000C1D1D1DE482F5820683178383E0808304
:10033000248135814681578157FF1AC0C901AA27F8
:1003400097FDA095BA2F81709070A070B0705695EF
:10035000479537952795822B932BA42BB52B848318
:100360009583A683B7838281938101969383828349
:10037000DF0101C0D201CD01CDB7DEB7E2E10C94BF
:10038000EC33A0E2B0E0E7ECF1E00C94DC336983FD
:100390007A838B839C832D833E834F835887E9E048
:1003A000EE2EF12CEC0EFD1ECE010196B7010E943F
:1003B000D2048E010F5E1F4FCE010596B8010E9438
:1003C000D2048A8991E089278A8BC701B801AE01DE
:1003D000475E5F4F0E9475000E94FD03A096E6E015
:1003E0000C94F833A0E2B0E0E8EFF1E00C94DC33D9
:1003F00069837A838B839C832D833E834F835887C5
:10040000F9E0EF2EF12CEC0EFD1ECE010196B701A6
:100410000E94D2048E010F5E1F4FCE010596B801D7
:100420000E94D204C701B801AE01475E5F4F0E942F
:1004300075000E94FD03A096E6E00C94F833A0E25C
:10044000B0E0E5E2F2E00C94D03369837A838B83E9
:100450009C832D833E834F835887CE010196BE0136
:10046000675F7F4F0E94D204CE010596BE016F5E8A
:100470007F4F0E94D2049985923088F0898982301A
:10048000C8F0943019F4823051F404C0843029F457
:10049000923081F488E891E0C6C0923049F420E0BF
:1004A0009A858A89981321E02A87CE010996BBC0D4
:1004B000823049F420E09A858A89981321E02A8BBA
:1004C000CE014196B0C02D843E844F8458886D88FB
:1004D0007E888F88988CEE24FF248701AA24BB2471
:1004E000650140E050E060E070E0E0E0F0E0C10174
:1004F00081709070892BE9F0E60CF71C081D191D1E
:100500009A01AB012A0D3B1D4C1D5D1D80E090E062
:10051000A0E0B0E0E614F7040805190520F481E036
:1005200090E0A0E0B0E0BA01A901480F591F6A1F8E
:100530007B1FAA0CBB1CCC1CDD1C97FE08C081E0F5
:1005400090E0A0E0B0E0A82AB92ACA2ADB2A3196B6
:10055000E032F10549F0660C771C881C991C569412
:10056000479437942794C3CFFA85EA892B893C892D
:100570008B859C85280F391F2E5F3F4F17C0CA01FE
:1005800081709070892B61F016950795F794E79428
:1005900080E090E0A0E0B0E8E82AF92A0A2B1B2BC3
:1005A00076956795579547952F5F3F4F77FDE7CF36
:1005B0000CC0440F551F661F771F17FD4160EE0CDE
:1005C000FF1C001F111F21503040403090E05907A0
:1005D00090E0690790E4790760F32B8F3C8FDB0193
:1005E000CA018F779070A070B07080349105A1051A
:1005F000B10561F447FD0AC0E114F10401051105DC
:1006000029F0405C5F4F6F4F7F4F40781A8EFE1786
:1006100011F081E08A8F4D8F5E8F6F8F78A383E01A
:10062000898FCE0149960E94FD03A096E2E10C94C9
:10063000EC33A8E1B0E0EFE1F3E00C94DC33698344
:100640007A838B839C832D833E834F83588789E0F5
:10065000E82EF12CEC0EFD1ECE010196B7010E9492
:10066000D2048E010F5E1F4FCE010596B8010E9485
:10067000D2048985823040F08989823028F0C70110
:10068000B8010E944A0501C08FEF6896E6E00C941D
:10069000F833A8E1B0E0EFE4F3E00C94DC336983D5
:1006A0007A838B839C832D833E834F83588789E095
:1006B000E82EF12CEC0EFD1ECE010196B7010E9432
:1006C000D2048E010F5E1F4FCE010596B8010E9425
:1006D000D2048985823040F08989823028F0C701B0
:1006E000B8010E944A0501C08FEF6896E6E00C94BD
:1006F000F833A8E1B0E0EFE7F3E00C94DC33698372
:100700007A838B839C832D833E834F83588789E034
:10071000E82EF12CEC0EFD1ECE010196B7010E94D1
:10072000D2048E010F5E1F4FCE010596B8010E94C4
:10073000D2048985823040F08989823028F0C7014F
:10074000B8010E944A0501C081E06896E6E00C9479
:10075000F833ACE0B0E0EFEAF3E00C94E033698307
:100760007A838B839C83CE010196BE016B5F7F4FA2
:100770000E94D2048D81823061F1823050F1843048
:1007800021F48E81882351F12EC02F81388537FDC9
:1007900020C06E812F3131051CF06623F9F023C093
:1007A0008EE190E0821B930B29853A854B855C8511
:1007B00004C056954795379527958A95D2F76623B5
:1007C000B1F050954095309521953F4F4F4F5F4F79
:1007D0000EC020E030E040E050E009C02FEF3FEFD6
:1007E0004FEF5FE704C020E030E040E050E8B9019F
:1007F000CA012C96E2E00C94FC33DF92EF92FF9258
:100800000F931F93FC01E480F58006811781D1804E
:100810008081823048F480E090E0A0E1B0E0E82AF6
:10082000F92A0A2B1B2BA5C0843009F49FC0823003
:1008300021F4EE24FF24870105C0E114F104010531
:10084000110519F4E0E0F0E096C0628173819FEF3A
:10085000623879070CF05BC022E83FEF261B370BAC
:100860002A3131052CF020E030E040E050E02AC091
:10087000B801A701022E04C0769567955795479554
:100880000A94D2F781E090E0A0E0B0E004C0880FC5
:10089000991FAA1FBB1F2A95D2F70197A109B10979
:1008A0008E219F21A023B1230097A105B10521F03E
:1008B00081E090E0A0E0B0E09A01AB01282B392B59
:1008C0004A2B5B2BDA01C9018F779070A070B07052
:1008D00080349105A105B10539F427FF09C0205CDA
:1008E0003F4F4F4F5F4F04C0215C3F4F4F4F5F4F13
:1008F000E0E0F0E02030A0E03A07A0E04A07A0E402
:100900005A0710F0E1E0F0E079018A0127C0603871
:10091000710564F5FB01E158FF4FD801C7018F77DE
:100920009070A070B07080349105A105B10539F4C4
:10093000E7FE0DC080E490E0A0E0B0E004C08FE3EB
:1009400090E0A0E0B0E0E80EF91E0A1F1B1F17FFA1
:1009500005C016950795F794E794319687E01695AC
:100960000795F794E7948A95D1F705C0EE24FF2404
:100970008701EFEFF0E06E2F679566276795902F60
:100980009F77D794DD24D7948E2F8695492F462BB9
:10099000582F5D29B701CA011F910F91FF90EF9069
:1009A000DF900895FC01DB01408151812281622F9B
:1009B0006F7770E0221F2227221F9381892F880FD3
:1009C000822B282F30E0991F9927991F11969C930D
:1009D000119721153105A9F54115510561057105DD
:1009E00011F482E037C082E89FEF13969C938E93B8
:1009F00012979A01AB0167E0220F331F441F551F66
:100A00006A95D1F783E08C930DC0220F331F441FEA
:100A1000551F12968D919C911397019713969C9355
:100A20008E931297203080E0380780E0480780E4FA
:100A3000580758F314962D933D934D935C93179755
:100A400008952F3F310579F4411551056105710570
:100A500019F484E08C93089564FF03C081E08C93C3
:100A600012C01C9210C02F57304013963C932E9307
:100A7000129783E08C9387E0440F551F661F771F02
:100A80008A95D1F7706414964D935D936D937C9322
:100A9000179708951F93DC01FB019C91923008F495
:100AA00047C08081823008F443C0943051F41196DD
:100AB0001C91843099F58181682F70E0611B710968
:100AC0003FC0843021F0923031F48230B9F181811D
:100AD000882389F12DC011961C9111978230F1F075
:100AE00081811817D9F412962D913C911397828128
:100AF00093818217930794F028173907BCF0149656
:100B00008D919D910D90BC91A02D248135814681C0
:100B10005781281739074A075B0718F4112341F05A
:100B20000AC082179307A407B50740F4112319F0F0
:100B300061E070E005C06FEF7FEF02C060E070E041
:100B4000CB011F910895DF93CF93CDB7DEB7A3E517
:100B5000B0E0E3E5F0E08081877F8C93A3E5B0E02F
:100B6000E3E5F0E080818F7B8C93AFE5B0E0EFE5CB
:100B7000F0E0808180688C93A9E5B0E0E9E5F0E0E1
:100B8000808181608C93CF91DF910895DF93CF9323
:100B9000CDB7DEB7A3E5B0E0E3E5F0E080818160AA
:100BA0008C93A3E5B0E0E3E5F0E080818D7F8C934A
:100BB000A3E5B0E0E3E5F0E0808184608C93CF9121
:100BC000DF910895DF93CF93CDB7DEB7A3E5B0E013
:100BD000E3E5F0E080818E7F8C93A3E5B0E0E3E570
:100BE000F0E080818D7F8C93A3E5B0E0E3E5F0E059
:100BF000808184608C93CF91DF910895DF93CF93B0
:100C0000CDB7DEB72C970FB6F894DEBF0FBECDBFC1
:100C100069877A878B879C8780E890E0A0E0B0E0C6
:100C20008D839E83AF83B88789859A85AB85BC8584
:100C300028EE33E040E050E0BC01CD010E94683373
:100C4000DC01CB012D813E814F815885BC01CD0156
:100C50000E949333DA01C90189839A83AB83BC83F1
:100C600089819A81AB81BC81892F9A2FAB2FBB27B9
:100C70008093A0019093A101A093A201B093A3013E
:100C800089819A81AB81BC819C01AD01307040703B
:100C9000507080E091E0A0E0B0E0821B930BA40BC9
:100CA000B50B8093A4019093A501A093A601B093E6
:100CB000A701E2E5F0E08091A4019091A501A09147
:100CC000A601B091A70180838091A0019091A1011C
:100CD000A091A201B091A3010196A11DB11D809325
:100CE000A0019093A101A093A201B093A3012C961F
:100CF0000FB6F894DEBF0FBECDBFCF91DF91089540
:100D0000DF93CF9300D000D0CDB7DEB789836A835D
:100D10008981282F30E03C832B838B819C8181301B
:100D20009105D1F02B813C81223031052CF48B814F
:100D30009C81009761F01EC02B813C8122303105DF
:100D400081F08B819C818330910581F013C0EAE3AF
:100D5000F0E08A8180830EC0E7E3F0E08A8180833F
:100D600009C0E4E3F0E08A81808304C0E1E3F0E0BD
:100D70008A8180830F900F900F900F90CF91DF9119
:100D80000895DF93CF9300D000D0CDB7DEB789832D
:100D90006A838981282F30E03C832B838B819C815F
:100DA00081309105D1F02B813C81223031052CF42A
:100DB0008B819C81009761F01EC02B813C81223089
:100DC000310581F08B819C818330910581F013C0C6
:100DD000EBE3F0E08A8180830EC0E8E3F0E08A81F3
:100DE000808309C0E5E3F0E08A81808304C0E2E308
:100DF000F0E08A8180830F900F900F900F90CF9139
:100E0000DF910895DF93CF93CDB7DEB729970FB663
:100E1000F894DEBF0FBECDBF89836A834B838B817D
:100E2000282F30E03987288788859985009709F42D
:100E300075C0288539852130310509F0E2C08981E6
:100E4000282F30E03F832E838E819F818130910552
:100E500049F12E813F81223031052CF48E819F8112
:100E6000009761F0CEC02E813F812230310571F1B3
:100E70008E819F8183309105E9F1C3C0AAE3B0E080
:100E8000EAE3F0E08081482F8A81282F30E081E07A
:100E900090E0022E02C0880F991F0A94E2F7842B7B
:100EA0008C93AFC0A7E3B0E0E7E3F0E08081482F88
:100EB0008A81282F30E081E090E0022E02C0880F66
:100EC000991F0A94E2F7842B8C939BC0A4E3B0E0B3
:100ED000E4E3F0E08081482F8A81282F30E081E030
:100EE00090E0022E02C0880F991F0A94E2F7842B2B
:100EF0008C9387C0A1E3B0E0E1E3F0E08081482F6C
:100F00008A81282F30E081E090E0022E02C0880F15
:100F1000991F0A94E2F7842B8C9373C08981282F40
:100F200030E03D832C838C819D818130910559F186
:100F30002C813D81223031052CF48C819D810097DC
:100F400069F05FC02C813D812230310589F18C81AF
:100F50009D818330910509F440C053C0AAE3B0E0FD
:100F6000EAE3F0E08081482F8A81282F30E081E099
:100F700090E0022E02C0880F991F0A94E2F7809534
:100F800084238C933EC0A7E3B0E0E7E3F0E08081E8
:100F9000482F8A81282F30E081E090E0022E02C0A5
:100FA000880F991F0A94E2F7809584238C9329C0B7
:100FB000A4E3B0E0E4E3F0E08081482F8A81282FA9
:100FC00030E081E090E0022E02C0880F991F0A9461
:100FD000E2F7809584238C9314C0A1E3B0E0E1E3B1
:100FE000F0E08081482F8A81282F30E081E090E076
:100FF000022E02C0880F991F0A94E2F7809584237D
:101000008C9329960FB6F894DEBF0FBECDBFCF915B
:10101000DF910895DF93CF93CDB7DEB729970FB651
:10102000F894DEBF0FBECDBF89836A834B838B816B
:10103000282F30E03987288788859985009709F41B
:1010400075C0288539852130310509F0E2C08981D4
:10105000282F30E03F832E838E819F818130910540
:1010600049F12E813F81223031052CF48E819F8100
:10107000009761F0CEC02E813F812230310571F1A1
:101080008E819F8183309105E9F1C3C0ABE3B0E06D
:10109000EBE3F0E08081482F8A81282F30E081E067
:1010A00090E0022E02C0880F991F0A94E2F7842B69
:1010B0008C93AFC0A8E3B0E0E8E3F0E08081482F74
:1010C0008A81282F30E081E090E0022E02C0880F54
:1010D000991F0A94E2F7842B8C939BC0A5E3B0E0A0
:1010E000E5E3F0E08081482F8A81282F30E081E01D
:1010F00090E0022E02C0880F991F0A94E2F7842B19
:101100008C9387C0A2E3B0E0E2E3F0E08081482F57
:101110008A81282F30E081E090E0022E02C0880F03
:10112000991F0A94E2F7842B8C9373C08981282F2E
:1011300030E03D832C838C819D818130910559F174
:101140002C813D81223031052CF48C819D810097CA
:1011500069F05FC02C813D812230310589F18C819D
:101160009D818330910509F440C053C0ABE3B0E0EA
:10117000EBE3F0E08081482F8A81282F30E081E086
:1011800090E0022E02C0880F991F0A94E2F7809522
:1011900084238C933EC0A8E3B0E0E8E3F0E08081D4
:1011A000482F8A81282F30E081E090E0022E02C093
:1011B000880F991F0A94E2F7809584238C9329C0A5
:1011C000A5E3B0E0E5E3F0E08081482F8A81282F95
:1011D00030E081E090E0022E02C0880F991F0A944F
:1011E000E2F7809584238C9314C0A2E3B0E0E2E39D
:1011F000F0E08081482F8A81282F30E081E090E064
:10120000022E02C0880F991F0A94E2F7809584236A
:101210008C9329960FB6F894DEBF0FBECDBFCF9149
:10122000DF910895DF93CF9300D000D000D0CDB7E9
:10123000DEB789836A838981282F30E03D832C8340
:101240004C815D814130510549F18C819D81823015
:10125000910534F42C813D812115310561F057C091
:101260004C815D814230510561F18C819D818330DB
:101270009105D1F14CC0E9E3F0E08081282F30E006
:101280008A81882F90E0A90102C0559547958A95DB
:10129000E2F7CA01582F51705B833AC0E6E3F0E0F1
:1012A0008081282F30E08A81882F90E0A90102C038
:1012B000559547958A95E2F7CA01582F51705B837F
:1012C00027C0E3E3F0E08081282F30E08A81882F77
:1012D00090E0A90102C0559547958A95E2F7CA01A9
:1012E000582F51705B8314C0E0E3F0E08081282F19
:1012F00030E08A81882F90E0A90102C0559547957A
:101300008A95E2F7CA01582F51705B8301C002C071
:101310008B818E838E8126960FB6F894DEBF0FBE2A
:10132000CDBFCF91DF910895DF93CF9300D000D050
:10133000CDB7DEB789836A838981282F30E03C836B
:101340002B838B819C818130910549F12B813C81DC
:10135000223031052CF48B819C81009761F05AC0BA
:101360002B813C812230310571F18B819C8183304E
:101370009105E9F14FC0ABE3B0E0EBE3F0E0808131
:10138000482F8A81282F30E081E090E0022E02C0B1
:10139000880F991F0A94E2F7842B8C933BC0A8E333
:1013A000B0E0E8E3F0E08081482F8A81282F30E028
:1013B00081E090E0022E02C0880F991F0A94E2F7A4
:1013C000842B8C9327C0A5E3B0E0E5E3F0E08081B7
:1013D000482F8A81282F30E081E090E0022E02C061
:1013E000880F991F0A94E2F7842B8C9313C0A2E311
:1013F000B0E0E2E3F0E08081482F8A81282F30E0DE
:1014000081E090E0022E02C0880F991F0A94E2F753
:10141000842B8C930F900F900F900F90CF91DF91B2
:101420000895DF93CF9300D000D0CDB7DEB7898386
:101430006A838981282F30E03C832B838B819C81B8
:101440008130910549F12B813C81223031052CF40A
:101450008B819C81009761F05AC02B813C812230A6
:10146000310571F18B819C8183309105E9F14FC089
:10147000ABE3B0E0EBE3F0E08081482F8A81282FD6
:1014800030E081E090E0022E02C0880F991F0A949C
:10149000E2F784278C933BC0A8E3B0E0E8E3F0E0F8
:1014A0008081482F8A81282F30E081E090E0022E51
:1014B00002C0880F991F0A94E2F784278C9327C0F3
:1014C000A5E3B0E0E5E3F0E08081482F8A81282F92
:1014D00030E081E090E0022E02C0880F991F0A944C
:1014E000E2F784278C9313C0A2E3B0E0E2E3F0E0DC
:1014F0008081482F8A81282F30E081E090E0022E01
:1015000002C0880F991F0A94E2F784278C930F90EA
:101510000F900F900F90CF91DF910895DF93CF93AD
:1015200000D000D00F92CDB7DEB789838981282FF4
:1015300030E03C832B838B819C818430910509F4BE
:101540004BC02B813C8125303105D4F48B819C81AB
:1015500081309105C1F12B813C81223031052CF481
:101560008B819C81009761F149C02B813C812230A5
:10157000310561F18B819C818330910551F13EC031
:101580002B813C812730310581F18B819C81883012
:1015900091055CF42B813C812530310501F18B8173
:1015A0009C8186309105F1F029C02B813C81283047
:1015B0003105F1F08B819C8189309105E1F01EC0ED
:1015C0009FE39A831CC026E02A8319C03BE53A8337
:1015D00016C08FE48A8313C096E69A8310C02DE666
:1015E0002A830DC03DE73A830AC087E08A8307C09B
:1015F0009FE79A8304C02FE62A8301C002C03A8184
:101600003D838D810F900F900F900F900F90CF9191
:10161000DF910895DF93CF93CDB7DEB7E8970FB68C
:10162000F894DEBF0FBECDBF83E060E041E00E94D2
:10163000020783E061E041E00E94020780E067E08A
:1016400041E00E94020780E090E0A0EFB1E48DABA2
:101650009EABAFABB8AF6DA97EA98FA998AD20E0C6
:1016600030E04AEF54E40E941F02DC01CB0189AB59
:101670009AABABABBCAB69A97AA98BA99CA920E0BA
:1016800030E040E85FE30E94790388232CF481E096
:1016900090E098AB8FA73FC069A97AA98BA99CA9B4
:1016A00020E03FEF4FE757E40E94190318164CF56E
:1016B0006DA97EA98FA998AD20E030E040E251E409
:1016C0000E941F02DC01CB01BC01CD010E94490038
:1016D000DC01CB0198AB8FA70FC088EC90E09EA7F0
:1016E0008DA78DA59EA50197F1F79EA78DA78FA524
:1016F00098A9019798AB8FA78FA598A9009769F72C
:1017000014C069A97AA98BA99CA90E944900DC018F
:10171000CB0198AB8FA78FA598A99CA78BA78BA56A
:101720009CA50197F1F79CA78BA782E06FEF0E9421
:1017300080068CE30E94040D80E090E0A0E8BFE307
:101740008FA398A7A9A7BAA76FA178A589A59AA5DD
:1017500020E030E04AEF54E40E941F02DC01CB019C
:101760008BA39CA3ADA3BEA36BA17CA18DA19EA1C5
:1017700020E030E040E85FE30E94790388232CF406
:1017800081E090E09AA389A33FC06BA17CA18DA1C9
:101790009EA120E03FEF4FE757E40E94190318167F
:1017A0004CF56FA178A589A59AA520E030E040E22C
:1017B00051E40E941F02DC01CB01BC01CD010E945B
:1017C0004900DC01CB019AA389A30FC088EC90E00B
:1017D00098A38F8F8F8D98A10197F1F798A38F8F82
:1017E00089A19AA101979AA389A389A19AA1009797
:1017F00069F714C06BA17CA18DA19EA10E94490034
:10180000DC01CB019AA389A389A19AA19E8F8D8F18
:101810008D8D9E8D0197F1F79E8F8D8F8FE00E94A9
:10182000040D80E090E0A0E8BFE3898F9A8FAB8F32
:10183000BC8F698D7A8D8B8D9C8D20E030E04AEFD6
:1018400054E40E941F02DC01CB018D8B9E8BAF8B79
:10185000B88F6D897E898F89988D20E030E040E8CF
:101860005FE30E94790388232CF481E090E09C8B55
:101870008B8B3FC06D897E898F89988D20E03FEFEB
:101880004FE757E40E94190318164CF5698D7A8DBD
:101890008B8D9C8D20E030E040E251E40E941F02DD
:1018A000DC01CB01BC01CD010E944900DC01CB0170
:1018B0009C8B8B8B0FC088EC90E09A8B898B8989ED
:1018C0009A890197F1F79A8B898B8B899C8901976B
:1018D0009C8B8B8B8B899C89009769F714C06D89D1
:1018E0007E898F89988D0E944900DC01CB019C8BF9
:1018F0008B8B8B899C89988B8F878F859889019793
:10190000F1F7988B8F8781E00E94040D80E090E0D2
:10191000A0E0B0E48B879C87AD87BE876B857C8514
:101920008D859E8520E030E04AEF54E40E941F023E
:10193000DC01CB018F839887A987BA876F8178856F
:1019400089859A8520E030E040E85FE30E947903D2
:1019500088232CF481E090E09E838D833FC06F81CB
:10196000788589859A8520E03FEF4FE757E40E940C
:10197000190318164CF56B857C858D859E8520E0B6
:1019800030E040E251E40E941F02DC01CB01BC01C7
:10199000CD010E944900DC01CB019E838D830FC0E5
:1019A00088EC90E09C838B838B819C810197F1F77D
:1019B0009C838B838D819E8101979E838D838D81F6
:1019C0009E81009769F714C06F81788589859A8513
:1019D0000E944900DC01CB019E838D838D819E8115
:1019E0009A83898389819A810197F1F79A83898300
:1019F00086E00E94040DE8960FB6F894DEBF0FBE95
:101A0000CDBFCF91DF910895DF93CF93CDB7DEB7F0
:101A10006D970FB6F894DEBF0FBECDBF8D8F83E0FC
:101A200060E040E00E940A0883E061E040E00E943C
:101A30000A0882E06D8D0E94C10680E067E041E007
:101A40000E940A0880E090E0A0E8BFE3898F9A8FA7
:101A5000AB8FBC8F698D7A8D8B8D9C8D20E030E0B3
:101A60004AEF54E40E941F02DC01CB018D8B9E8B58
:101A7000AF8BB88F6D897E898F89988D20E030E09B
:101A800040E85FE30E94790388232CF481E090E032
:101A90009C8B8B8B3FC06D897E898F89988D20E0D0
:101AA0003FEF4FE757E40E94190318164CF5698D74
:101AB0007A8D8B8D9C8D20E030E040E251E40E94D5
:101AC0001F02DC01CB01BC01CD010E944900DC01F9
:101AD000CB019C8B8B8B0FC088EC90E09A8B898B11
:101AE00089899A890197F1F79A8B898B8B899C89CF
:101AF00001979C8B8B8B8B899C89009769F714C00D
:101B00006D897E898F89988D0E944900DC01CB0107
:101B10009C8B8B8B8B899C89988B8F878F859889E1
:101B20000197F1F7988B8F8780E067E040E00E9493
:101B30000A0880E090E0A0E8BFE38B879C87AD8730
:101B4000BE876B857C858D859E8520E030E04AEFE1
:101B500054E40E941F02DC01CB018F839887A98780
:101B6000BA876F81788589859A8520E030E040E8E2
:101B70005FE30E94790388232CF481E090E09E8348
:101B80008D833FC06F81788589859A8520E03FEFFE
:101B90004FE757E40E94190318164CF56B857C85B6
:101BA0008D859E8520E030E040E251E40E941F02D6
:101BB000DC01CB01BC01CD010E944900DC01CB015D
:101BC0009E838D830FC088EC90E09C838B838B81F8
:101BD0009C810197F1F79C838B838D819E81019776
:101BE0009E838D838D819E81009769F714C06F81DC
:101BF000788589859A850E944900DC01CB019E8306
:101C00008D838D819E819A83898389819A810197B1
:101C1000F1F79A8389836D960FB6F894DEBF0FBEF5
:101C2000CDBFCF91DF910895DF93CF93CDB7DEB7CE
:101C30006D970FB6F894DEBF0FBECDBF8D8F83E0DA
:101C400060E041E00E940A0883E061E040E00E9419
:101C50000A0882E06D8D0E94C10680E067E041E0E5
:101C60000E940A0880E090E0A0E8BFE3898F9A8F85
:101C7000AB8FBC8F698D7A8D8B8D9C8D20E030E091
:101C80004AEF54E40E941F02DC01CB018D8B9E8B36
:101C9000AF8BB88F6D897E898F89988D20E030E079
:101CA00040E85FE30E94790388232CF481E090E010
:101CB0009C8B8B8B3FC06D897E898F89988D20E0AE
:101CC0003FEF4FE757E40E94190318164CF5698D52
:101CD0007A8D8B8D9C8D20E030E040E251E40E94B3
:101CE0001F02DC01CB01BC01CD010E944900DC01D7
:101CF000CB019C8B8B8B0FC088EC90E09A8B898BEF
:101D000089899A890197F1F79A8B898B8B899C89AC
:101D100001979C8B8B8B8B899C89009769F714C0EA
:101D20006D897E898F89988D0E944900DC01CB01E5
:101D30009C8B8B8B8B899C89988B8F878F859889BF
:101D40000197F1F7988B8F8780E067E040E00E9471
:101D50000A0880E090E0A0E8BFE38B879C87AD870E
:101D6000BE876B857C858D859E8520E030E04AEFBF
:101D700054E40E941F02DC01CB018F839887A9875E
:101D8000BA876F81788589859A8520E030E040E8C0
:101D90005FE30E94790388232CF481E090E09E8326
:101DA0008D833FC06F81788589859A8520E03FEFDC
:101DB0004FE757E40E94190318164CF56B857C8594
:101DC0008D859E8520E030E040E251E40E941F02B4
:101DD000DC01CB01BC01CD010E944900DC01CB013B
:101DE0009E838D830FC088EC90E09C838B838B81D6
:101DF0009C810197F1F79C838B838D819E81019754
:101E00009E838D838D819E81009769F714C06F81B9
:101E1000788589859A850E944900DC01CB019E83E3
:101E20008D838D819E819A83898389819A8101978F
:101E3000F1F79A8389836D960FB6F894DEBF0FBED3
:101E4000CDBFCF91DF910895DF93CF9300D0CDB771
:101E5000DEB79A8389830AC0E981FA8180810E9472
:101E6000140E89819A8101969A838983E981FA8186
:101E70008081882389F70F900F90CF91DF9108958B
:101E8000DF93CF93CDB7DEB781E00E94040DCF91F1
:101E9000DF910895DF93CF9300D000D0CDB7DEB7A8
:101EA00089836A838981282F30E03C832B838B814F
:101EB0009C818130910531F02B813C8122303105AC
:101EC00031F009C08A8180580E94040D04C08A81C3
:101ED00080540E94040D0F900F900F900F90CF919F
:101EE000DF910895DF93CF93CDB7DEB72A970FB672
:101EF000F894DEBF0FBECDBF6E837F83888799873E
:101F00008E819F81A885B985BB2394F48DE20E94C0
:101F1000140E8E819F81A885B985B095A095909566
:101F200081959F4FAF4FBF4F8E839F83A887B987FF
:101F30001A821B821C821D82198215C089818F5FC3
:101F400089838E819F81A885B9852AE030E040E0B1
:101F500050E0BC01CD010E94B533DA01C9018E8386
:101F60009F83A887B9878E819F81A885B9852AE03C
:101F700030E040E050E0BC01CD010E94B533DC010F
:101F8000CB010097A105B10509F049C08E819F8161
:101F9000A885B9850097A105B10581F640C08A8161
:101FA0009B81AC81BD812AE030E040E050E0BC0183
:101FB000CD010E946833DC01CB018A839B83AC8313
:101FC000BD838E819F81A885B9852AE030E040E0FD
:101FD00050E0BC01CD010E94B533DC01CB019C0176
:101FE000AD018A819B81AC81BD81820F931FA41FAB
:101FF000B51F8A839B83AC83BD838E819F81A88517
:10200000B9852AE030E040E050E0BC01CD010E94FB
:10201000B533DA01C9018E839F83A887B9878E8182
:102020009F81A885B9850097A105B10509F0B7CFB3
:102030008A819B81AC81BD810097A105B10539F5ED
:1020400080E30E94140E23C08A819B81AC81BD81F4
:102050002AE030E040E050E0BC01CD010E94933323
:10206000DC01CB01805D0E94140E8A819B81AC81D2
:10207000BD812AE030E040E050E0BC01CD010E948B
:102080009333DA01C9018A839B83AC83BD838A8140
:102090009B81AC81BD810097A105B105A9F603C064
:1020A00080E30E94140E89818A878A85882311F033
:1020B00081E08A878A85998191509983882381F765
:1020C0002A960FB6F894DEBF0FBECDBFCF91DF9139
:1020D0000895DF93CF93CDB7DEB781E060E040E0B5
:1020E0000E94020781E061E040E00E94020781E077
:1020F00062E040E00E94020781E063E040E00E946D
:10210000020781E064E041E00E94020781E065E0AF
:1021100041E00E94020781E066E041E00E94020780
:1021200081E067E041E00E94020781E064E041E075
:102130000E940A0881E065E041E00E940A0881E00F
:1021400066E041E00E940A0881E067E041E00E9409
:102150000A0881E060E00E94940981E061E00E9449
:10216000940981E062E00E94940981E063E00E94AA
:102170009409CF91DF910895DF93CF93CDB7DEB768
:1021800063970FB6F894DEBF0FBECDBF1B8A84E005
:1021900090E09A8B898BB2C0998981E0692F40E0E9
:1021A0000E940A08188A1F8698C09F8581E0692FBF
:1021B0000E9412098823D1F44F85588989899A8908
:1021C0009C0124503040CA01880F991F880F991F25
:1021D000820F931FFC01E057FE4F80818B8B9F8500
:1021E00081E0692F0E9412098823C9F380E090E002
:1021F000A0E2B1E48B879C87AD87BE876B857C8529
:102200008D859E8520E030E04AEF54E40E941F0255
:10221000DC01CB018F839887A987BA876F81788586
:1022200089859A8520E030E040E85FE30E947903E9
:1022300088232CF481E090E09E838D833FC06F81E2
:10224000788589859A8520E03FEF4FE757E40E9423
:10225000190318164CF56B857C858D859E8520E0CD
:1022600030E040E251E40E941F02DC01CB01BC01DE
:10227000CD010E944900DC01CB019E838D830FC0FC
:1022800088EC90E09C838B838B819C810197F1F794
:102290009C838B838D819E8101979E838D838D810D
:1022A0009E81009769F714C06F81788589859A852A
:1022B0000E944900DC01CB019E838D838D819E812C
:1022C0009A83898389819A810197F1F79A83898317
:1022D0008F8598890196988B8F878F859889843010
:1022E00091050CF462CF998981E0692F41E00E9449
:1022F0000A0889899A8901969A8B898B89899A8992
:10230000883091050CF448CF8B8963960FB6F8940A
:10231000DEBF0FBECDBFCF91DF910895DF93CF9386
:10232000CDB7DEB76E970FB6F894DEBF0FBECDBF48
:102330001E8E80E690E00E94240F82E06EE00E94F4
:102340004A0F0E94BC108D8F8D8D8823D1F38D8D07
:10235000803308F4A3C08D8D8A3308F09FC08D8D23
:102360000E94140E8E8D882F90E09C01220F331F47
:10237000C901880F991F880F991F820F931F8E8F95
:102380009D8D8E8D890F80538E8F1D8E8E8D8D30FD
:10239000C0F20E94400F89E690E00E94240F80E086
:1023A00090E0AAE7B4E4898F9A8FAB8FBC8F698DD8
:1023B0007A8D8B8D9C8D20E030E04AEF54E40E94B2
:1023C0001F02DC01CB018D8B9E8BAF8BB88F6D898B
:1023D0007E898F89988D20E030E040E85FE30E949D
:1023E000790388232CF481E090E09C8B8B8B3FC099
:1023F0006D897E898F89988D20E03FEF4FE757E404
:102400000E94190318164CF5698D7A8D8B8D9C8D61
:1024100020E030E040E251E40E941F02DC01CB01E9
:10242000BC01CD010E944900DC01CB019C8B8B8B50
:102430000FC088EC90E09A8B898B89899A890197E3
:10244000F1F79A8B898B8B899C8901979C8B8B8B5D
:102450008B899C89009769F714C06D897E898F8963
:10246000988D0E944900DC01CB019C8B8B8B8B8962
:102470009C89988B8F878F8598890197F1F7988B26
:102480008F870E94400F80E690E00E94240F82E038
:102490006EE00E944A0F1D8E1E8E53CF8D8D8D33A0
:1024A00079F48E8D882361F00E94400F8E8D6E9698
:1024B0000FB6F894DEBF0FBECDBFCF91DF91089568
:1024C0000E94400F89E690E00E94240F80E090E097
:1024D000AAE7B4E48B879C87AD87BE876B857C8534
:1024E0008D859E8520E030E04AEF54E40E941F0273
:1024F000DC01CB018F839887A987BA876F817885A4
:1025000089859A8520E030E040E85FE30E94790306
:1025100088232CF481E090E09E838D833FC06F81FF
:10252000788589859A8520E03FEF4FE757E40E9440
:10253000190318164CF56B857C858D859E8520E0EA
:1025400030E040E251E40E941F02DC01CB01BC01FB
:10255000CD010E944900DC01CB019E838D830FC019
:1025600088EC90E09C838B838B819C810197F1F7B1
:102570009C838B838D819E8101979E838D838D812A
:102580009E81009769F714C06F81788589859A8547
:102590000E944900DC01CB019E838D838D819E8149
:1025A0009A83898389819A810197F1F79A83898334
:1025B0000E94400F80E690E00E94240F82E06EE0CF
:1025C0000E944A0F1D8E1E8EBCCEDF93CF93CDB7D7
:1025D000DEB76E970FB6F894DEBF0FBECDBF1E8E6E
:1025E0008FE690E00E94240F82E06EE00E944A0F86
:1025F0000E94BC108D8F8D8D8823D1F38D8D8033FB
:1026000008F4A3C08D8D8A3308F09FC08D8D0E9481
:10261000140E8E8D882F90E09C01220F331FC9016C
:10262000880F991F880F991F820F931F8E8F9D8D82
:102630008E8D890F80538E8F1D8E8E8D8C33C0F2C0
:102640000E94400F89E690E00E94240F80E090E015
:10265000AAE7B4E4898F9A8FAB8FBC8F698D7A8D8E
:102660008B8D9C8D20E030E04AEF54E40E941F02E5
:10267000DC01CB018D8B9E8BAF8BB88F6D897E89F2
:102680008F89988D20E030E040E85FE30E94790375
:1026900088232CF481E090E09C8B8B8B3FC06D896C
:1026A0007E898F89988D20E03FEF4FE757E40E94A5
:1026B000190318164CF5698D7A8D8B8D9C8D20E051
:1026C00030E040E251E40E941F02DC01CB01BC017A
:1026D000CD010E944900DC01CB019C8B8B8B0FC08C
:1026E00088EC90E09A8B898B89899A890197F1F718
:1026F0009A8B898B8B899C8901979C8B8B8B8B897F
:102700009C89009769F714C06D897E898F89988D9F
:102710000E944900DC01CB019C8B8B8B8B899C89AF
:10272000988B8F878F8598890197F1F7988B8F8782
:102730000E94400F8FE690E00E94240F82E06EE03E
:102740000E944A0F1D8E1E8E53CF8D8D8D3361F4E6
:102750000E94400F8E8D6E960FB6F894DEBF0FBEAE
:10276000CDBFCF91DF9108950E94400F89E690E0A0
:102770000E94240F80E090E0AAE7B4E48B879C8756
:10278000AD87BE876B857C858D859E8520E030E09A
:102790004AEF54E40E941F02DC01CB018F8398872B
:1027A000A987BA876F81788589859A8520E030E08E
:1027B00040E85FE30E94790388232CF481E090E0F5
:1027C0009E838D833FC06F81788589859A8520E0BF
:1027D0003FEF4FE757E40E94190318164CF56B853D
:1027E0007C858D859E8520E030E040E251E40E94AA
:1027F0001F02DC01CB01BC01CD010E944900DC01BC
:10280000CB019E838D830FC088EC90E09C838B83EB
:102810008B819C810197F1F79C838B838D819E81B5
:1028200001979E838D838D819E81009769F714C0E7
:102830006F81788589859A850E944900DC01CB01EA
:102840009E838D838D819E819A83898389819A81DC
:102850000197F1F79A8389830E94400F8FE690E0F9
:102860000E94240F82E06EE00E944A0F1D8E1E8E91
:10287000BFCEDF93CF93CDB7DEB76E970FB6F89488
:10288000DEBF0FBECDBF1E8E8AE790E00E94240FF0
:1028900082E06EE00E944A0F0E94BC108D8F8D8DE9
:1028A0008823D1F38D8D803308F4A3C08D8D8A33B6
:1028B00008F09FC08D8D0E94140E8E8D882F90E0A1
:1028C0009C01220F331FC901880F991F880F991F80
:1028D000820F931F8E8F9D8D8E8D890F80538E8FCB
:1028E0001D8E8E8D8C33C0F20E94400F89E690E0E1
:1028F0000E94240F80E090E0AAE7B4E4898F9A8FC9
:10290000AB8FBC8F698D7A8D8B8D9C8D20E030E0F4
:102910004AEF54E40E941F02DC01CB018D8B9E8B99
:10292000AF8BB88F6D897E898F89988D20E030E0DC
:1029300040E85FE30E94790388232CF481E090E073
:102940009C8B8B8B3FC06D897E898F89988D20E011
:102950003FEF4FE757E40E94190318164CF5698DB5
:102960007A8D8B8D9C8D20E030E040E251E40E9416
:102970001F02DC01CB01BC01CD010E944900DC013A
:10298000CB019C8B8B8B0FC088EC90E09A8B898B52
:1029900089899A890197F1F79A8B898B8B899C8910
:1029A00001979C8B8B8B8B899C89009769F714C04E
:1029B0006D897E898F89988D0E944900DC01CB0149
:1029C0009C8B8B8B8B899C89988B8F878F85988923
:1029D0000197F1F7988B8F870E94400F8AE790E06C
:1029E0000E94240F82E06EE00E944A0F1D8E1E8E10
:1029F00053CF8D8D8D3361F40E94400F8E8D6E9676
:102A00000FB6F894DEBF0FBECDBFCF91DF91089512
:102A10000E94400F89E690E00E94240F80E090E041
:102A2000AAE7B4E48B879C87AD87BE876B857C85DE
:102A30008D859E8520E030E04AEF54E40E941F021D
:102A4000DC01CB018F839887A987BA876F8178854E
:102A500089859A8520E030E040E85FE30E947903B1
:102A600088232CF481E090E09E838D833FC06F81AA
:102A7000788589859A8520E03FEF4FE757E40E94EB
:102A8000190318164CF56B857C858D859E8520E095
:102A900030E040E251E40E941F02DC01CB01BC01A6
:102AA000CD010E944900DC01CB019E838D830FC0C4
:102AB00088EC90E09C838B838B819C810197F1F75C
:102AC0009C838B838D819E8101979E838D838D81D5
:102AD0009E81009769F714C06F81788589859A85F2
:102AE0000E944900DC01CB019E838D838D819E81F4
:102AF0009A83898389819A810197F1F79A838983DF
:102B00000E94400F8AE790E00E94240F82E06EE06E
:102B10000E944A0F1D8E1E8EBFCEEF92FF920F9322
:102B20001F93DF93CF93CDB7DEB7C55DD1400FB60E
:102B3000F894DEBF0FBECDBF0E9469100E940A0B41
:102B4000FE01E553FE4F81E090E0A0E0B0E080831D
:102B50009183A283B38385E890E00E94240F82E0F2
:102B600060E00E944A0F0E94BC10FE01E853FE4F35
:102B70008083FE01E853FE4F80818823A1F3FE018C
:102B8000E853FE4F8081803308F447C0FE01E853CC
:102B9000FE4F80818A3308F040C08AE20E94140E02
:102BA0008E0105531E4FFE01E553FE4F808191813A
:102BB000A281B3812AE030E040E050E0BC01CD01C9
:102BC0000E946833DC01CB01F80180839183A283EA
:102BD000B383FE01E853FE4F8081882F90E0C097B9
:102BE0009C01442737FD4095542FBE0165537E4F0D
:102BF000FE01E553FE4F80819181A281B381820F56
:102C0000931FA41FB51FFB0180839183A283B3830D
:102C1000FE01E853FE4F1082A6CFFE01E853FE4F9F
:102C200080818D3309F0F5C0FE01E553FE4F8081B0
:102C30009181A281B381803CF8E79F07FAE9AF0751
:102C4000F0E0BF0799F40E94400F84E990E00E94F1
:102C5000240F82E060E00E944A0F85EA90E00E9423
:102C6000240F82E06EE00E944A0FA6C10E94400F2E
:102C700084EB90E00E94240FFE01EF55FE4F80E0B0
:102C800090E0AAE7B4E480839183A283B3838E01AA
:102C900003561E4FFE01EF55FE4F60817181828108
:102CA000938120E030E04AEF54E40E941F02DC01EF
:102CB000CB01F80180839183A283B383FE01E356A5
:102CC000FE4F608171818281938120E030E040E895
:102CD0005FE30E947903882344F4FE01E556FE4F2A
:102CE00081E090E09183808364C0FE01E356FE4F53
:102CF000608171818281938120E03FEF4FE757E44B
:102D00000E94190318160CF043C0FE01EF55FE4F48
:102D1000608171818281938120E030E040E251E462
:102D20000E941F02DC01CB018E0105561E4FBC0123
:102D3000CD010E944900DC01CB01F8019183808321
:102D40001FC0FE01E756FE4F88EC90E09183808320
:102D5000FE01E756FE4F808191810197F1F7FE0158
:102D6000E756FE4F91838083DE01A556BE4FFE01DC
:102D7000E556FE4F80819181019711969C938E9329
:102D8000FE01E556FE4F808191810097D1F627C064
:102D90008E0105561E4FFE01E356FE4F6081718184
:102DA000828193810E944900DC01CB01F80191836B
:102DB0008083DE01A956BE4FFE01E556FE4F80819D
:102DC00091818D939C93FE01E956FE4F8081918104
:102DD0000197F1F7FE01E956FE4F918380830E942F
:102DE000400F85E890E00E94240F82E060E00E949E
:102DF0004A0FFE01E853FE4F1082FE01E553FE4FDD
:102E000081E090E0A0E0B0E080839183A283B3836F
:102E1000AACE0E94400F83EC90E00E94240FFE0196
:102E2000ED56FE4F80E090E0AAE7B4E48083918302
:102E3000A283B3838E0101571E4FFE01ED56FE4F54
:102E4000608171818281938120E030E04AEF54E417
:102E50000E941F02DC01CB01F80180839183A283D1
:102E6000B383FE01E157FE4F6081718182819381BE
:102E700020E030E040E85FE30E947903882344F4D7
:102E8000FE01E357FE4F81E090E09183808364C0B0
:102E9000FE01E157FE4F608171818281938120E0C4
:102EA0003FEF4FE757E40E94190318160CF043C098
:102EB000FE01ED56FE4F608171818281938120E099
:102EC00030E040E251E40E941F02DC01CB018E01A0
:102ED00003571E4FBC01CD010E944900DC01CB010C
:102EE000F801918380831FC0FE01E557FE4F88ECF7
:102EF00090E091838083FE01E557FE4F80819181B0
:102F00000197F1F7FE01E557FE4F91838083DE01C3
:102F1000A357BE4FFE01E357FE4F80819181019779
:102F200011969C938E93FE01E357FE4F8081918111
:102F30000097D1F627C08E0103571E4FFE01E157BF
:102F4000FE4F60817181828193810E944900DC0182
:102F5000CB01F80191838083DE01A757BE4FFE01AC
:102F6000E357FE4F808191818D939C93FE01E7573B
:102F7000FE4F808191810197F1F7FE01E757FE4FE7
:102F8000918380830E94400F85E890E00E94240F87
:102F900082E060E00E944A0FFE01E853FE4F10827B
:102FA000FE01E553FE4F81E090E0A0E0B0E08083B9
:102FB0009183A283B383D7CD0E94BC10FE01E65358
:102FC000FE4F8083FE01E653FE4F80818823A1F3EC
:102FD000FE01E653FE4F80810E94140EDE01A753CE
:102FE000BE4FFE01E653FE4F808180538C93FE015D
:102FF000EB57FE4F80E090E0AAEFB3E4808391832B
:10300000A283B3838E010F571E4FFE01EB57FE4F75
:10301000608171818281938120E030E04AEF54E445
:103020000E941F02DC01CB01F80180839183A283FF
:10303000B383FE01EF57FE4F6081718182819381DE
:1030400020E030E040E85FE30E947903882344F405
:10305000FE01E158FE4F81E090E09183808364C0DF
:10306000FE01EF57FE4F608171818281938120E0E4
:103070003FEF4FE757E40E94190318160CF043C0C6
:10308000FE01EB57FE4F608171818281938120E0C8
:1030900030E040E251E40E941F02DC01CB018E01CE
:1030A00001581E4FBC01CD010E944900DC01CB013B
:1030B000F801918380831FC0FE01E358FE4F88EC26
:1030C00090E091838083FE01E358FE4F80819181DF
:1030D0000197F1F7FE01E358FE4F91838083DE01F3
:1030E000A158BE4FFE01E158FE4F808191810197AA
:1030F00011969C938E93FE01E158FE4F8081918141
:103100000097D1F628C08E0101581E4FFE01EF57DF
:10311000FE4F60817181828193810E944900DC01B0
:10312000CB01F80191838083DE01A558BE4FFE01DB
:10313000E158FE4F8081918111969C938E93FE0100
:10314000E558FE4F808191810197F1F7FE01E55826
:10315000FE4F91838083FE01E753FE4F80818130D3
:1031600091F0FE01E753FE4F8081823061F0FE0155
:10317000E753FE4F8081833031F0FE01E753FE4F6D
:103180008081843059F40E94400FFE01E753FE4FC6
:103190008081813009F4CEC00C9460200E94400FE1
:1031A0008AEC90E00E94240FFE01E958FE4F80E077
:1031B00090E0AAE7B4E480839183A283B3838E0175
:1031C0000D581E4FFE01E958FE4F608171818281CA
:1031D000938120E030E04AEF54E40E941F02DC01BA
:1031E000CB01F80180839183A283B383FE01ED5864
:1031F000FE4F608171818281938120E030E040E860
:103200005FE30E947903882344F4FE01EF58FE4FE8
:1032100081E090E09183808364C0FE01ED58FE4F11
:10322000608171818281938120E03FEF4FE757E415
:103230000E94190318160CF043C0FE01E958FE4F16
:10324000608171818281938120E030E040E251E42D
:103250000E941F02DC01CB018E010F581E4FBC01E2
:10326000CD010E944900DC01CB01F80191838083EC
:103270001FC0FE01E159FE4F88EC90E091838083EE
:10328000FE01E159FE4F808191810197F1F7FE0126
:10329000E159FE4F91838083DE01AF58BE4FFE019E
:1032A000EF58FE4F80819181019711969C938E93E8
:1032B000FE01EF58FE4F808191810097D1F627C023
:1032C0008E010F581E4FFE01ED58FE4F6081718137
:1032D000828193810E944900DC01CB01F801918336
:1032E0008083DE01A359BE4FFE01EF58FE4F80815F
:1032F00091818D939C93FE01E359FE4F80819181D2
:103300000197F1F7FE01E359FE4F918380830E94FC
:10331000400F84E990E00E94240F82E060E00E9468
:103320004A0F85EA90E00E94240F82E06EE00E943E
:103330004A0F42CE0E94400F0E94691080E06FEF5A
:103340000E94800682E06FEF0E94800683E06FEFAC
:103350000E9480060E948E11FE01E953FE4F808379
:103360000E94E512FE01EA53FE4F80830E94391449
:10337000FE01EB53FE4F808384ED90E00E94240F0A
:1033800082E060E00E944A0F82EE90E00E94240FEB
:10339000FE01EC53FE4FDE01A953BE4F8C9180839A
:1033A000BBC5FE01ED53FE4FDE01AA53BE4F8C910B
:1033B00080839CC5FE01EE53FE4FDE01AB53BE4F32
:1033C0008C91808379C5FE01E054FE4F84E190E04A
:1033D000918380833EC583E063E041E00E940A0858
:1033E00083E064E041E00E940A0883E065E041E098
:1033F0000E940A0883E065E041E00E940A0883E039
:1034000067E041E00E940A0883E062E040E00E9439
:103410000A080BE310E0FE01EE53FE4F80819AE0B4
:10342000692F0E948733892F0E948E0AF8018083BA
:10343000FE01E759FE4F80E090E0A0E0B1E4808318
:103440009183A283B3838E010B591E4FFE01E7596E
:10345000FE4F608171818281938120E030E04AEFEC
:1034600054E40E941F02DC01CB01F80180839183A8
:10347000A283B383FE01EB59FE4F6081718182818B
:10348000938120E030E040E85FE30E9479038823E5
:1034900044F4FE01ED59FE4F81E090E0918380837A
:1034A00064C0FE01EB59FE4F60817181828193817E
:1034B00020E03FEF4FE757E40E94190318160CF085
:1034C00043C0FE01E759FE4F608171818281938183
:1034D00020E030E040E251E40E941F02DC01CB0119
:1034E0008E010D591E4FBC01CD010E944900DC0127
:1034F000CB01F801918380831FC0FE01EF59FE4F7D
:1035000088EC90E091838083FE01EF59FE4F80812B
:1035100091810197F1F7FE01EF59FE4F918380836E
:10352000DE01AD59BE4FFE01ED59FE4F8081918104
:10353000019711969C938E93FE01ED59FE4F808169
:1035400091810097D1F627C08E010D591E4FFE01C3
:10355000EB59FE4F60817181828193810E94490005
:10356000DC01CB01F80191838083DE01A15ABE4FBB
:10357000FE01ED59FE4F808191818D939C93FE0158
:10358000E15AFE4F808191810197F1F7FE01E15AE6
:10359000FE4F9183808383E062E041E00E940A084D
:1035A00083E064E041E00E940A0883E065E041E0D6
:1035B0000E940A0883E066E041E00E940A0883E076
:1035C00067E041E00E940A0883E063E040E00E9477
:1035D0000A080BE310E0FE01EE53FE4F80819AE0F3
:1035E000692F0E9487330E948E0AF8018083FE01B2
:1035F000E55AFE4F80E090E0A0E0B1E48083918343
:10360000A283B3838E01095A1E4FFE01E55AFE4F75
:10361000608171818281938120E030E04AEF54E43F
:103620000E941F02DC01CB01F80180839183A283F9
:10363000B383FE01E95AFE4F6081718182819381DB
:1036400020E030E040E85FE30E947903882344F4FF
:10365000FE01EB5AFE4F81E090E09183808364C0CD
:10366000FE01E95AFE4F608171818281938120E0E1
:103670003FEF4FE757E40E94190318160CF043C0C0
:10368000FE01E55AFE4F608171818281938120E0C5
:1036900030E040E251E40E941F02DC01CB018E01C8
:1036A0000B5A1E4FBC01CD010E944900DC01CB0129
:1036B000F801918380831FC0FE01ED5AFE4F88EC14
:1036C00090E091838083FE01ED5AFE4F80819181CD
:1036D0000197F1F7FE01ED5AFE4F91838083DE01E1
:1036E000AB5ABE4FFE01EB5AFE4F8081918101978C
:1036F00011969C938E93FE01EB5AFE4F808191812F
:103700000097D1F627C08E010B5A1E4FFE01E95AD1
:10371000FE4F60817181828193810E944900DC01AA
:10372000CB01F80191838083DE01AF5ABE4FFE01C9
:10373000EB5AFE4F808191818D939C93FE01EF5A4D
:10374000FE4F808191810197F1F7FE01EF5AFE4F04
:103750009183808383E062E041E00E940A0883E075
:1037600063E041E00E940A0883E065E041E00E94D6
:103770000A0883E066E041E00E940A0883E067E00F
:1037800041E00E940A0883E064E040E00E940A08E9
:103790000BE310E0FE01ED53FE4F80819AE0692FAC
:1037A0000E948733892F0E948E0AF8018083FE01D0
:1037B000E35BFE4F80E090E0A0E0B1E48083918382
:1037C000A283B3838E01075B1E4FFE01E35BFE4FB6
:1037D000608171818281938120E030E04AEF54E47E
:1037E0000E941F02DC01CB01F80180839183A28338
:1037F000B383FE01E75BFE4F60817181828193811B
:1038000020E030E040E85FE30E947903882344F43D
:10381000FE01E95BFE4F81E090E09183808364C00C
:10382000FE01E75BFE4F608171818281938120E020
:103830003FEF4FE757E40E94190318160CF043C0FE
:10384000FE01E35BFE4F608171818281938120E004
:1038500030E040E251E40E941F02DC01CB018E0106
:10386000095B1E4FBC01CD010E944900DC01CB0168
:10387000F801918380831FC0FE01EB5BFE4F88EC53
:1038800090E091838083FE01EB5BFE4F808191810C
:103890000197F1F7FE01EB5BFE4F91838083DE0120
:1038A000A95BBE4FFE01E95BFE4F808191810197CC
:1038B00011969C938E93FE01E95BFE4F808191816E
:1038C0000097D1F627C08E01095B1E4FFE01E75B12
:1038D000FE4F60817181828193810E944900DC01E9
:1038E000CB01F80191838083DE01AD5BBE4FFE0109
:1038F000E95BFE4F808191818D939C93FE01ED5B8E
:10390000FE4F808191810197F1F7FE01ED5BFE4F43
:103910009183808383E062E041E00E940A0883E0B3
:1039200063E041E00E940A0883E064E041E00E9415
:103930000A0883E066E041E00E940A0883E067E04D
:1039400041E00E940A0883E065E040E00E940A0826
:103950000BE310E0FE01ED53FE4F80819AE0692FEA
:103960000E9487330E948E0AF8018083FE01E15C89
:10397000FE4F80E090E0A0E0B1E480839183A283D9
:10398000B3838E01055C1E4FFE01E15CFE4F60813A
:1039900071818281938120E030E04AEF54E40E94FB
:1039A0001F02DC01CB01F80180839183A283B383E2
:1039B000FE01E55CFE4F608171818281938120E090
:1039C00030E040E85FE30E947903882344F4FE017D
:1039D000E75CFE4F81E090E09183808364C0FE014C
:1039E000E55CFE4F608171818281938120E03FEF31
:1039F0004FE757E40E94190318160CF043C0FE016C
:103A0000E15CFE4F608171818281938120E030E032
:103A100040E251E40E941F02DC01CB018E01075CF1
:103A20001E4FBC01CD010E944900DC01CB01F80111
:103A3000918380831FC0FE01E95CFE4F88EC90E01B
:103A400091838083FE01E95CFE4F80819181019723
:103A5000F1F7FE01E95CFE4F91838083DE01A75CF4
:103A6000BE4FFE01E75CFE4F808191810197119668
:103A70009C938E93FE01E75CFE4F808191810097BD
:103A8000D1F627C08E01075C1E4FFE01E55CFE4F9C
:103A900060817181828193810E944900DC01CB01A8
:103AA000F80191838083DE01AB5CBE4FFE01E75CD1
:103AB000FE4F808191818D939C93FE01EB5CFE4FC4
:103AC000808191810197F1F7FE01EB5CFE4F9183BC
:103AD000808383E062E041E00E940A0883E063E0C3
:103AE00041E00E940A0883E064E041E00E940A0885
:103AF00083E065E041E00E940A0883E067E041E07E
:103B00000E940A0883E066E040E00E940A080BE396
:103B100010E0FE01EC53FE4F80819AE0692F0E9475
:103B20008733892F0E948E0AF8018083FE01EF5CA3
:103B3000FE4F80E090E0A0E0B1E480839183A28317
:103B4000B3838E01035D1E4FFE01EF5CFE4F60816B
:103B500071818281938120E030E04AEF54E40E9439
:103B60001F02DC01CB01F80180839183A283B38320
:103B7000FE01E35DFE4F608171818281938120E0CF
:103B800030E040E85FE30E947903882344F4FE01BB
:103B9000E55DFE4F81E090E09183808364C0FE018B
:103BA000E35DFE4F608171818281938120E03FEF70
:103BB0004FE757E40E94190318160CF043C0FE01AA
:103BC000EF5CFE4F608171818281938120E030E063
:103BD00040E251E40E941F02DC01CB018E01055D31
:103BE0001E4FBC01CD010E944900DC01CB01F80150
:103BF000918380831FC0FE01E75DFE4F88EC90E05B
:103C000091838083FE01E75DFE4F80819181019762
:103C1000F1F7FE01E75DFE4F91838083DE01A55D34
:103C2000BE4FFE01E55DFE4F8081918101971196A7
:103C30009C938E93FE01E55DFE4F808191810097FC
:103C4000D1F627C08E01055D1E4FFE01E35DFE4FDC
:103C500060817181828193810E944900DC01CB01E6
:103C6000F80191838083DE01A95DBE4FFE01E55D11
:103C7000FE4F808191818D939C93FE01E95DFE4F03
:103C8000808191810197F1F7FE01E95DFE4F9183FB
:103C9000808383E062E041E00E940A0883E063E001
:103CA00041E00E940A0883E064E041E00E940A08C3
:103CB00083E065E041E00E940A0883E066E041E0BD
:103CC0000E940A0883E067E040E00E940A080BE3D4
:103CD00010E0FE01EC53FE4F80819AE0692F0E94B4
:103CE00087330E948E0AF8018083FE01ED5DFE4F4E
:103CF00080E090E0A0E0B1E480839183A283B3836D
:103D00008E01015E1E4FFE01ED5DFE4F60817181EF
:103D10008281938120E030E04AEF54E40E941F0248
:103D2000DC01CB01F80180839183A283B383FE0180
:103D3000E15EFE4F608171818281938120E030E0FD
:103D400040E85FE30E947903882344F4FE01E35EC8
:103D5000FE4F81E090E09183808364C0FE01E15ECC
:103D6000FE4F608171818281938120E03FEF4FE7B8
:103D700057E40E94190318160CF043C0FE01ED5DD4
:103D8000FE4F608171818281938120E030E040E2CA
:103D900051E40E941F02DC01CB018E01035E1E4F25
:103DA000BC01CD010E944900DC01CB01F8019183E7
:103DB00080831FC0FE01E55EFE4F88EC90E091839A
:103DC0008083FE01E55EFE4F808191810197F1F7CE
:103DD000FE01E55EFE4F91838083DE01A35EBE4F50
:103DE000FE01E35EFE4F80819181019711969C93C5
:103DF0008E93FE01E35EFE4F808191810097D1F6A4
:103E000028C08E01035E1E4FFE01E15EFE4F608101
:103E10007181828193810E944900DC01CB01F8010C
:103E200091838083DE01A75EBE4FFE01E35EFE4FFD
:103E30008081918111969C938E93FE01E75EFE4FE7
:103E4000808191810197F1F7FE01E75EFE4F91833A
:103E50008083CB52DE4F1882C55DD140FE01E05415
:103E6000FE4F80819181009731F0F1E0CB52DE4F1F
:103E7000F883C55DD140DE01A054BE4FFE01E05481
:103E8000FE4F80819181019711969C938E93CB5226
:103E9000DE4FE880C55DD140EE2009F09CCAFE01EE
:103EA000EB53FE4F1082DE01AE53BE4FFE01EE53C8
:103EB000FE4F80818F5F8C93FE01EE53FE4F808119
:103EC0008C3338F481E060E00E941209882309F005
:103ED0007ACAFE01EA53FE4F1082DE01AD53BE4F97
:103EE000FE01ED53FE4F80818F5F8C93FE01ED53F9
:103EF000FE4F80818C3338F481E060E00E9412092B
:103F0000882309F057CADE01AC53BE4FFE01EC53C3
:103F1000FE4F80818F5F8C93FE01EC53FE4F8081BA
:103F20008D3038F481E060E00E941209882309F0A6
:103F300038CAFE01E953FE4F81E0808381E060E0F2
:103F40000E941209882309F023CA0E94400F86EFBD
:103F500090E00E94240FFE01EB5EFE4F80E090E0B7
:103F6000AAEFB4E480839183A283B3838E010F5EB2
:103F70001E4FFE01EB5EFE4F608171818281938155
:103F800020E030E04AEF54E40E941F02DC01CB0144
:103F9000F80180839183A283B383FE01EF5EFE4F1D
:103FA000608171818281938120E030E040E85FE3AD
:103FB0000E947903882344F4FE01E15FFE4F81E013
:103FC00090E09183808364C0FE01EF5EFE4F6081CC
:103FD00071818281938120E03FEF4FE757E40E9497
:103FE000190318160CF043C0FE01EB5EFE4F608112
:103FF00071818281938120E030E040E251E40E94AF
:104000001F02DC01CB018E01015F1E4FBC01CD01FF
:104010000E944900DC01CB01F801918380831FC01D
:10402000FE01E35FFE4F88EC90E091838083FE0108
:10403000E35FFE4F808191810197F1F7FE01E35F1D
:10404000FE4F91838083DE01A15FBE4FFE01E15FE1
:10405000FE4F80819181019711969C938E93FE0172
:10406000E15FFE4F808191810097D1F663C98E0197
:10407000015F1E4FFE01EF5EFE4F60817181828104
:1040800093810E944900DC01CB01F8019183808378
:10409000DE01A55FBE4FFE01E15FFE4F8081918191
:1040A00011969C938E93FE01E55FFE4F8081918176
:1040B0000197F1F7FE01E55FFE4F918380833AC9D6
:1040C000FE01E753FE4F8081823011F00C949F2B4C
:1040D0000E94400F0E94691080E06FEF0E948006EE
:1040E00082E06FEF0E94800683E06FEF0E948006FF
:1040F00081E091E00E94240F82E060E00E944A0F7C
:1041000084E191E00E94240FFE01E154FE4F1082F1
:104110000C94852BFE01E254FE4F10820C946E2B02
:10412000FE01E354FE4F10820C94572BFE01E55420
:10413000FE4F84E190E0918380833EC583E063E09D
:1041400041E00E940A0883E064E041E00E940A081E
:1041500083E065E041E00E940A0883E065E041E019
:104160000E940A0883E067E041E00E940A0883E0B9
:1041700062E040E00E940A080BE310E0FE01E35415
:10418000FE4F80819AE0692F0E948733892F0E9419
:104190008E0AF8018083FE01E95FFE4F80E090E027
:1041A000A0E0B1E480839183A283B3838E010D5F8D
:1041B0001E4FFE01E95FFE4F608171818281938114
:1041C00020E030E04AEF54E40E941F02DC01CB0102
:1041D000F80180839183A283B383FE01ED5FFE4FDC
:1041E000608171818281938120E030E040E85FE36B
:1041F0000E947903882344F4FE01EF5FFE4F81E0C3
:1042000090E09183808364C0FE01ED5FFE4F60818A
:1042100071818281938120E03FEF4FE757E40E9454
:10422000190318160CF043C0FE01E95FFE4F6081D0
:1042300071818281938120E030E040E251E40E946C
:104240001F02DC01CB018E010F5F1E4FBC01CD01AF
:104250000E944900DC01CB01F801918380831FC0DB
:10426000FE01E150FF4F88EC90E091838083FE01D6
:10427000E150FF4F808191810197F1F7FE01E150FC
:10428000FF4F91838083DE01AF5FBE4FFE01EF5F82
:10429000FE4F80819181019711969C938E93FE0130
:1042A000EF5FFE4F808191810097D1F627C08E018C
:1042B0000F5F1E4FFE01ED5FFE4F608171818281B5
:1042C00093810E944900DC01CB01F8019183808336
:1042D000DE01A350BF4FFE01EF5FFE4F8081918151
:1042E0008D939C93FE01E350FF4F80819181019754
:1042F000F1F7FE01E350FF4F9183808383E062E09A
:1043000041E00E940A0883E064E041E00E940A085C
:1043100083E065E041E00E940A0883E066E041E056
:104320000E940A0883E067E041E00E940A0883E0F7
:1043300063E040E00E940A080BE310E0FE01E35452
:10434000FE4F80819AE0692F0E9487330E948E0A77
:10435000F8018083FE01E750FF4F80E090E0A0E08D
:10436000B1E480839183A283B3838E010B501F4FEE
:10437000FE01E750FF4F608171818281938120E0CF
:1043800030E04AEF54E40E941F02DC01CB01F80147
:1043900080839183A283B383FE01EB50FF4F608142
:1043A00071818281938120E030E040E85FE30E94E8
:1043B0007903882344F4FE01ED50FF4F81E090E043
:1043C0009183808364C0FE01EB50FF4F6081718157
:1043D0008281938120E03FEF4FE757E40E94190369
:1043E00018160CF043C0FE01E750FF4F6081718149
:1043F0008281938120E030E040E251E40E941F027C
:10440000DC01CB018E010D501F4FBC01CD010E947C
:104410004900DC01CB01F801918380831FC0FE01BC
:10442000EF50FF4F88EC90E091838083FE01EF50C6
:10443000FF4F808191810197F1F7FE01EF50FF4F0F
:1044400091838083DE01AD50BF4FFE01ED50FF4FE1
:1044500080819181019711969C938E93FE01ED507E
:10446000FF4F808191810097D1F627C08E010D50BA
:104470001F4FFE01EB50FF4F60817181828193815C
:104480000E944900DC01CB01F80191838083DE01A9
:10449000A151BF4FFE01ED50FF4F808191818D935F
:1044A0009C93FE01E151FF4F808191810197F1F7CB
:1044B000FE01E151FF4F9183808383E062E041E0A0
:1044C0000E940A0883E063E041E00E940A0883E05A
:1044D00065E041E00E940A0883E066E041E00E9456
:1044E0000A0883E067E041E00E940A0883E064E094
:1044F00040E00E940A080BE310E0FE01E254FE4F88
:1045000080819AE0692F0E948733892F0E948E0A4A
:10451000F8018083FE01E551FF4F80E090E0A0E0CC
:10452000B1E480839183A283B3838E0109511F4F2D
:10453000FE01E551FF4F608171818281938120E00E
:1045400030E04AEF54E40E941F02DC01CB01F80185
:1045500080839183A283B383FE01E951FF4F608181
:1045600071818281938120E030E040E85FE30E9426
:104570007903882344F4FE01EB51FF4F81E090E082
:104580009183808364C0FE01E951FF4F6081718196
:104590008281938120E03FEF4FE757E40E941903A7
:1045A00018160CF043C0FE01E551FF4F6081718188
:1045B0008281938120E030E040E251E40E941F02BA
:1045C000DC01CB018E010B511F4FBC01CD010E94BC
:1045D0004900DC01CB01F801918380831FC0FE01FB
:1045E000ED51FF4F88EC90E091838083FE01ED5107
:1045F000FF4F808191810197F1F7FE01ED51FF4F4F
:1046000091838083DE01AB51BF4FFE01EB51FF4F21
:1046100080819181019711969C938E93FE01EB51BD
:10462000FF4F808191810097D1F627C08E010B51F9
:104630001F4FFE01E951FF4F60817181828193819B
:104640000E944900DC01CB01F80191838083DE01E7
:10465000AF51BF4FFE01EB51FF4F808191818D9390
:104660009C93FE01EF51FF4F808191810197F1F7FB
:10467000FE01EF51FF4F9183808383E062E041E0D0
:104680000E940A0883E063E041E00E940A0883E098
:1046900064E041E00E940A0883E066E041E00E9495
:1046A0000A0883E067E041E00E940A0883E065E0D1
:1046B00040E00E940A080BE310E0FE01E254FE4FC6
:1046C00080819AE0692F0E9487330E948E0AF80148
:1046D0008083FE01E352FF4F80E090E0A0E0B1E470
:1046E00080839183A283B3838E0107521F4FFE0103
:1046F000E352FF4F608171818281938120E030E03D
:104700004AEF54E40E941F02DC01CB01F8018083D0
:104710009183A283B383FE01E752FF4F60817181D1
:104720008281938120E030E040E85FE30E947903DA
:10473000882344F4FE01E952FF4F81E090E0918329
:10474000808364C0FE01E752FF4F608171818281E6
:10475000938120E03FEF4FE757E40E9419031816BA
:104760000CF043C0FE01E352FF4F608171818281F2
:10477000938120E030E040E251E40E941F02DC011E
:10478000CB018E0109521F4FBC01CD010E9449008F
:10479000DC01CB01F801918380831FC0FE01EB5245
:1047A000FF4F88EC90E091838083FE01EB52FF4F36
:1047B000808191810197F1F7FE01EB52FF4F9183C8
:1047C0008083DE01A952BF4FFE01E952FF4F808175
:1047D0009181019711969C938E93FE01E952FF4FB0
:1047E000808191810097D1F627C08E0109521F4F19
:1047F000FE01E752FF4F60817181828193810E94A7
:104800004900DC01CB01F80191838083DE01AD52C8
:10481000BF4FFE01E952FF4F808191818D939C93A0
:10482000FE01ED52FF4F808191810197F1F7FE016A
:10483000ED52FF4F9183808383E062E041E00E946C
:104840000A0883E063E041E00E940A0883E064E034
:1048500041E00E940A0883E065E041E00E940A0806
:1048600083E067E041E00E940A0883E066E040E000
:104870000E940A080BE310E0FE01E154FE4F808124
:104880009AE0692F0E948733892F0E948E0AF801CF
:104890008083FE01E153FF4F80E090E0A0E0B1E4AF
:1048A00080839183A283B3838E0105531F4FFE0142
:1048B000E153FF4F608171818281938120E030E07C
:1048C0004AEF54E40E941F02DC01CB01F80180830F
:1048D0009183A283B383FE01E553FF4F6081718111
:1048E0008281938120E030E040E85FE30E94790319
:1048F000882344F4FE01E753FF4F81E090E0918369
:10490000808364C0FE01E553FF4F60817181828125
:10491000938120E03FEF4FE757E40E9419031816F8
:104920000CF043C0FE01E153FF4F60817181828131
:10493000938120E030E040E251E40E941F02DC015C
:10494000CB018E0107531F4FBC01CD010E944900CE
:10495000DC01CB01F801918380831FC0FE01E95384
:10496000FF4F88EC90E091838083FE01E953FF4F75
:10497000808191810197F1F7FE01E953FF4F918307
:104980008083DE01A753BF4FFE01E753FF4F8081B5
:104990009181019711969C938E93FE01E753FF4FEF
:1049A000808191810097D1F627C08E0107531F4F58
:1049B000FE01E553FF4F60817181828193810E94E6
:1049C0004900DC01CB01F80191838083DE01AB5308
:1049D000BF4FFE01E753FF4F808191818D939C93E0
:1049E000FE01EB53FF4F808191810197F1F7FE01AA
:1049F000EB53FF4F9183808383E062E041E00E94AC
:104A00000A0883E063E041E00E940A0883E064E072
:104A100041E00E940A0883E065E041E00E940A0844
:104A200083E066E041E00E940A0883E067E040E03E
:104A30000E940A080BE310E0FE01E154FE4F808162
:104A40009AE0692F0E9487330E948E0AF8018083C2
:104A5000FE01EF53FF4F80E090E0A0E0B1E48083DF
:104A60009183A283B3838E0103541F4FFE01EF5342
:104A7000FF4F608171818281938120E030E04AEFB5
:104A800054E40E941F02DC01CB01F8018083918372
:104A9000A283B383FE01E354FF4F60817181828161
:104AA000938120E030E040E85FE30E9479038823AF
:104AB00044F4FE01E554FF4F81E090E09183808350
:104AC00064C0FE01E354FF4F608171818281938154
:104AD00020E03FEF4FE757E40E94190318160CF04F
:104AE00043C0FE01EF53FF4F60817181828193814A
:104AF00020E030E040E251E40E941F02DC01CB01E3
:104B00008E0105541F4FBC01CD010E944900DC01FC
:104B1000CB01F801918380831FC0FE01E754FF4F52
:104B200088EC90E091838083FE01E754FF4F808101
:104B300091810197F1F7FE01E754FF4F9183808344
:104B4000DE01A554BF4FFE01E554FF4F80819181E6
:104B5000019711969C938E93FE01E554FF4F80813F
:104B600091810097D1F628C08E0105541F4FFE0198
:104B7000E354FF4F60817181828193810E944900DB
:104B8000DC01CB01F80191838083DE01A954BF4F82
:104B9000FE01E554FF4F8081918111969C938E9385
:104BA000FE01E954FF4F808191810197F1F7FE01E9
:104BB000E954FF4F91838083CC52DE4F1882C45D4D
:104BC000D140FE01E554FE4F80819181009731F084
:104BD000F1E0CC52DE4FF883C45DD140DE01A55434
:104BE000BE4FFE01E554FE4F8081918101971196E1
:104BF0009C938E93CC52DE4FE880C45DD140EE2072
:104C000009F09CCA81E061E00E941209882309F042
:104C100045C53DC583E063E041E00E940A0883E0AA
:104C200064E041E00E940A0883E065E041E00E9400
:104C30000A0883E065E041E00E940A0883E067E03B
:104C400041E00E940A0883E062E040E00E940A0816
:104C50000BE310E0FE01E354FE4F80819AE0692FE0
:104C60000E948733892F0E948E0AF8018083FE01FB
:104C7000ED54FF4F80E090E0A0E0B1E480839183A9
:104C8000A283B3838E0101551F4FFE01ED54FF4FE8
:104C9000608171818281938120E030E04AEF54E4A9
:104CA0000E941F02DC01CB01F80180839183A28363
:104CB000B383FE01E155FF4F608171818281938151
:104CC00020E030E040E85FE30E947903882344F469
:104CD000FE01E355FF4F81E090E09183808364C043
:104CE000FE01E155FF4F608171818281938120E057
:104CF0003FEF4FE757E40E94190318160CF043C02A
:104D0000FE01ED54FF4F608171818281938120E02B
:104D100030E040E251E40E941F02DC01CB018E0131
:104D200003551F4FBC01CD010E944900DC01CB019E
:104D3000F801918380831FC0FE01E555FF4F88EC89
:104D400090E091838083FE01E555FF4F8081918142
:104D50000197F1F7FE01E555FF4F91838083DE0156
:104D6000A355BF4FFE01E355FF4F8081918101970D
:104D700011969C938E93FE01E355FF4F80819181A4
:104D80000097D1F627C08E0103551F4FFE01E15554
:104D9000FF4F60817181828193810E944900DC0113
:104DA000CB01F80191838083DE01A755BF4FFE013F
:104DB000E355FF4F808191818D939C93FE01E755D0
:104DC000FF4F808191810197F1F7FE01E755FF4F79
:104DD0009183808383E062E041E00E940A0883E0DF
:104DE00064E041E00E940A0883E065E041E00E943F
:104DF0000A0883E066E041E00E940A0883E067E079
:104E000041E00E940A0883E063E040E00E940A0853
:104E10000BE310E0FE01E354FE4F80819AE0692F1E
:104E20000E9487330E948E0AF8018083FE01EB55B1
:104E3000FF4F80E090E0A0E0B1E480839183A28303
:104E4000B3838E010F551F4FFE01EB55FF4F60815D
:104E500071818281938120E030E04AEF54E40E9426
:104E60001F02DC01CB01F80180839183A283B3830D
:104E7000FE01EF55FF4F608171818281938120E0B7
:104E800030E040E85FE30E947903882344F4FE01A8
:104E9000E156FF4F81E090E09183808364C0FE0182
:104EA000EF55FF4F608171818281938120E03FEF58
:104EB0004FE757E40E94190318160CF043C0FE0197
:104EC000EB55FF4F608171818281938120E030E05A
:104ED00040E251E40E941F02DC01CB018E01015629
:104EE0001F4FBC01CD010E944900DC01CB01F8013C
:104EF000918380831FC0FE01E356FF4F88EC90E052
:104F000091838083FE01E356FF4F80819181019759
:104F1000F1F7FE01E356FF4F91838083DE01A15636
:104F2000BF4FFE01E156FF4F80819181019711969D
:104F30009C938E93FE01E156FF4F808191810097F3
:104F4000D1F627C08E0101561F4FFE01EF55FF4FCE
:104F500060817181828193810E944900DC01CB01D3
:104F6000F80191838083DE01A556BF4FFE01E15613
:104F7000FF4F808191818D939C93FE01E556FF4FF9
:104F8000808191810197F1F7FE01E556FF4F9183F2
:104F9000808383E062E041E00E940A0883E063E0EE
:104FA00041E00E940A0883E065E041E00E940A08AF
:104FB00083E066E041E00E940A0883E067E041E0A8
:104FC0000E940A0883E064E040E00E940A080BE3C4
:104FD00010E0FE01E254FE4F80819AE0692F0E94AA
:104FE0008733892F0E948E0AF8018083FE01E956DB
:104FF000FF4F80E090E0A0E0B1E480839183A28342
:10500000B3838E010D561F4FFE01E956FF4F60819D
:1050100071818281938120E030E04AEF54E40E9464
:105020001F02DC01CB01F80180839183A283B3834B
:10503000FE01ED56FF4F608171818281938120E0F6
:1050400030E040E85FE30E947903882344F4FE01E6
:10505000EF56FF4F81E090E09183808364C0FE01B2
:10506000ED56FF4F608171818281938120E03FEF97
:105070004FE757E40E94190318160CF043C0FE01D5
:10508000E956FF4F608171818281938120E030E099
:1050900040E251E40E941F02DC01CB018E010F5659
:1050A0001F4FBC01CD010E944900DC01CB01F8017A
:1050B000918380831FC0FE01E157FF4F88EC90E091
:1050C00091838083FE01E157FF4F80819181019799
:1050D000F1F7FE01E157FF4F91838083DE01AF5668
:1050E000BF4FFE01EF56FF4F8081918101971196CE
:1050F0009C938E93FE01EF56FF4F80819181009724
:10510000D1F627C08E010F561F4FFE01ED56FF4FFF
:1051100060817181828193810E944900DC01CB0111
:10512000F80191838083DE01A357BF4FFE01EF5644
:10513000FF4F808191818D939C93FE01E357FF4F38
:10514000808191810197F1F7FE01E357FF4F918331
:10515000808383E062E041E00E940A0883E063E02C
:1051600041E00E940A0883E064E041E00E940A08EE
:1051700083E066E041E00E940A0883E067E041E0E6
:105180000E940A0883E065E040E00E940A080BE301
:1051900010E0FE01E254FE4F80819AE0692F0E94E8
:1051A00087330E948E0AF8018083FE01E757FF4F84
:1051B00080E090E0A0E0B1E480839183A283B38398
:1051C0008E010B571F4FFE01E757FF4F6081718122
:1051D0008281938120E030E04AEF54E40E941F0274
:1051E000DC01CB01F80180839183A283B383FE01AC
:1051F000EB57FF4F608171818281938120E030E025
:1052000040E85FE30E947903882344F4FE01ED57F0
:10521000FF4F81E090E09183808364C0FE01EB57F3
:10522000FF4F608171818281938120E03FEF4FE7E2
:1052300057E40E94190318160CF043C0FE01E7570B
:10524000FF4F608171818281938120E030E040E2F4
:1052500051E40E941F02DC01CB018E010D571F4F4C
:10526000BC01CD010E944900DC01CB01F801918312
:1052700080831FC0FE01EF57FF4F88EC90E09183C1
:105280008083FE01EF57FF4F808191810197F1F7F5
:10529000FE01EF57FF4F91838083DE01AD57BF4F73
:1052A000FE01ED57FF4F80819181019711969C93EC
:1052B0008E93FE01ED57FF4F808191810097D1F6CB
:1052C00027C08E010D571F4FFE01EB57FF4F608126
:1052D0007181828193810E944900DC01CB01F80138
:1052E00091838083DE01A158BF4FFE01ED57FF4F30
:1052F000808191818D939C93FE01E158FF4F8081C5
:1053000091810197F1F7FE01E158FF4F918380836E
:1053100083E062E041E00E940A0883E063E041E04C
:105320000E940A0883E064E041E00E940A0883E0EA
:1053300065E041E00E940A0883E067E041E00E94E6
:105340000A0883E066E040E00E940A080BE310E0F0
:10535000FE01E154FE4F80819AE0692F0E9487335D
:10536000892F0E948E0AF8018083FE01E558FF4FC5
:1053700080E090E0A0E0B1E480839183A283B383D6
:105380008E0109581F4FFE01E558FF4F6081718162
:105390008281938120E030E04AEF54E40E941F02B2
:1053A000DC01CB01F80180839183A283B383FE01EA
:1053B000E958FF4F608171818281938120E030E064
:1053C00040E85FE30E947903882344F4FE01EB5830
:1053D000FF4F81E090E09183808364C0FE01E95833
:1053E000FF4F608171818281938120E03FEF4FE721
:1053F00057E40E94190318160CF043C0FE01E5584B
:10540000FF4F608171818281938120E030E040E232
:1054100051E40E941F02DC01CB018E010B581F4F8B
:10542000BC01CD010E944900DC01CB01F801918350
:1054300080831FC0FE01ED58FF4F88EC90E0918300
:105440008083FE01ED58FF4F808191810197F1F734
:10545000FE01ED58FF4F91838083DE01AB58BF4FB3
:10546000FE01EB58FF4F80819181019711969C932B
:105470008E93FE01EB58FF4F808191810097D1F60A
:1054800027C08E010B581F4FFE01E958FF4F608166
:105490007181828193810E944900DC01CB01F80176
:1054A00091838083DE01AF58BF4FFE01EB58FF4F61
:1054B000808191818D939C93FE01EF58FF4F8081F5
:1054C00091810197F1F7FE01EF58FF4F918380839F
:1054D00083E062E041E00E940A0883E063E041E08B
:1054E0000E940A0883E064E041E00E940A0883E029
:1054F00065E041E00E940A0883E066E041E00E9426
:105500000A0883E067E040E00E940A080BE310E02D
:10551000FE01E154FE4F80819AE0692F0E9487339B
:105520000E948E0AF8018083FE01E359FF4F80E05C
:1055300090E0A0E0B1E480839183A283B3838E01E5
:1055400007591F4FFE01E359FF4F6081718182812E
:10555000938120E030E04AEF54E40E941F02DC0116
:10556000CB01F80180839183A283B383FE01E759C5
:10557000FF4F608171818281938120E030E040E8BB
:105580005FE30E947903882344F4FE01E959FF4F49
:1055900081E090E09183808364C0FE01E759FF4F72
:1055A000608171818281938120E03FEF4FE757E472
:1055B0000E94190318160CF043C0FE01E359FF4F77
:1055C000608171818281938120E030E040E251E48A
:1055D0000E941F02DC01CB018E0109591F4FBC0143
:1055E000CD010E944900DC01CB01F8019183808349
:1055F0001FC0FE01EB59FF4F88EC90E09183808340
:10560000FE01EB59FF4F808191810197F1F7FE0177
:10561000EB59FF4F91838083DE01A959BF4FFE01F3
:10562000E959FF4F80819181019711969C938E9348
:10563000FE01E959FF4F808191810097D1F627C083
:105640008E0109591F4FFE01E759FF4F608171819B
:10565000828193810E944900DC01CB01F801918392
:105660008083DE01AD59BF4FFE01E959FF4F8081B4
:1056700091818D939C93FE01ED59FF4F8081918123
:105680000197F1F7FE01ED59FF4F9183808381E08F
:1056900062E00E941209882309F0BCCADE01A3540B
:1056A000BE4FFE01E354FE4F80818F5F8C93FE015D
:1056B000E354FE4F80818C3340F481E060E00E942F
:1056C0001209882311F00C949620DE01A254BE4FDB
:1056D000FE01E254FE4F80818F5F8C93FE01E25405
:1056E000FE4F80818C3340F481E060E00E9412091B
:1056F000882311F00C949020DE01A154BE4FFE01CE
:10570000E154FE4F80818F5F8C93FE01E154FE4F88
:1057100080818D3040F481E060E00E94120988238E
:1057200011F00C948A2081E060E00E941209882325
:1057300011F00C9484200E94400F0C946820FE010C
:10574000E753FE4F8081833009F03FC50E94691006
:1057500080E06FEF0E94800682E06FEF0E9480067B
:1057600083E06FEF0E9480060E94E512FE01E6547E
:10577000FE4F80830E943914FE01E754FE4F808360
:10578000FE01E854FE4F8BE380838EE191E00E949E
:10579000240F82E060E00E944A0F8CE291E00E94B8
:1057A000240FFE01E15AFF4F80E090E0AAE7B5E444
:1057B00080839183A283B3838E01055A1F4FFE011C
:1057C000E15AFF4F608171818281938120E030E056
:1057D0004AEF54E40E941F02DC01CB01F8018083F0
:1057E0009183A283B383FE01E55AFF4F60817181EB
:1057F0008281938120E030E040E85FE30E947903FA
:10580000882344F4FE01E75AFF4F81E090E0918342
:10581000808364C0FE01E55AFF4F608171818281FF
:10582000938120E03FEF4FE757E40E9419031816D9
:105830000CF043C0FE01E15AFF4F6081718182810B
:10584000938120E030E040E251E40E941F02DC013D
:10585000CB018E01075A1F4FBC01CD010E944900A8
:10586000DC01CB01F801918380831FC0FE01E95A5E
:10587000FF4F88EC90E091838083FE01E95AFF4F4F
:10588000808191810197F1F7FE01E95AFF4F9183E1
:105890008083DE01A75ABF4FFE01E75AFF4F808188
:1058A0009181019711969C938E93FE01E75AFF4FC9
:1058B000808191810097D1F627C08E01075A1F4F32
:1058C000FE01E55AFF4F60817181828193810E94C0
:1058D0004900DC01CB01F80191838083DE01AB5AE2
:1058E000BF4FFE01E75AFF4F808191818D939C93BA
:1058F000FE01EB5AFF4F808191810197F1F7FE0184
:10590000EB5AFF4F918380830E94400F88E391E020
:105910000E94240F82E060E00E944A0F86E491E03A
:105920000E94240FFE01E954FE4F108236C3FE018F
:10593000E954FE4FDE01A654BE4F90818C9198171A
:1059400041F4FE01E854FE4FDE01A754BE4F8C9196
:105950008083FE01EA54FE4F108205C3FE01EC5421
:10596000FE4F84E190E091838083CEC283E063E0C8
:1059700041E00E940A0883E064E041E00E940A08D6
:1059800083E065E041E00E940A0883E065E041E0D1
:105990000E940A0883E067E041E00E940A0883E071
:1059A00062E040E00E940A080BE310E0FE01EA54C6
:1059B000FE4F80819AE0692F0E948733892F0E94D1
:1059C0008E0AF8018083FE01EF5AFF4F80E090E0DD
:1059D000A0E4B1E480839183A283B3838E01035B4F
:1059E0001F4FFE01EF5AFF4F6081718182819381C9
:1059F00020E030E04AEF54E40E941F02DC01CB01BA
:105A0000F80180839183A283B383FE01E35BFF4FA0
:105A1000608171818281938120E030E040E85FE322
:105A20000E947903882344F4FE01E55BFF4F81E087
:105A300090E09183808364C0FE01E35BFF4F60814F
:105A400071818281938120E03FEF4FE757E40E940C
:105A5000190318160CF043C0FE01EF5AFF4F608186
:105A600071818281938120E030E040E251E40E9424
:105A70001F02DC01CB018E01055B1F4FBC01CD0174
:105A80000E944900DC01CB01F801918380831FC093
:105A9000FE01E75BFF4F88EC90E091838083FE017D
:105AA000E75BFF4F808191810197F1F7FE01E75B92
:105AB000FF4F91838083DE01A55BBF4FFE01E55B55
:105AC000FF4F80819181019711969C938E93FE01E7
:105AD000E55BFF4F808191810097D1F627C08E0151
